:100000000C942E000C944B000C944B000C94730435
:100010000C944B000C944B000C944B000C949804E3
:100020000C944B000C944B000C944B000C944B0024
:100030000C944B000C944B000C944B000C944B0014
:100040000C944B000C944B000C944B000C944B0004
:100050000C944B000C944B000C944B0011241FBECD
:10006000CFEFD4E0DEBFCDBF11E0A0E0B1E0EAE227
:10007000FBE002C005900D92AC31B107D9F723E047
:10008000ACE1B1E001C01D92A934B207E1F70E94D2
:100090005D030C9493050C940000E1E6F0E080E829
:1000A0008083108287EB8093E50087E08093E600F1
:1000B0008FE08093E70080EC8093E400089584E073
:1000C00080938100E1E6F0E0808181608083089583
:1000D000CF93DF9300D0CDB7DEB71A821982663096
:1000E000710508F0E6C190ED980F9A3028F08AE08B
:1000F00090E09A83898304C090E0C0979A838983B3
:100100006115710509F049C0ACEEB0E08C91E98150
:10011000FA81EE0FFF1FEE5FFE4F90819F70807F90
:10012000892B8C93A1EFB0E02C91E981FA81EE0F3D
:10013000FF1FEE5FFE4F80819181807F992795950B
:100140008795959587959595879595958795922F00
:10015000907F892B8C93A6EFB0E08C91E981FA8196
:10016000EE0FFF1FEE5FFE4F2081318122273F708F
:10017000807F832B8C93ABEFB0E08C91E981FA8187
:10018000EE0FFF1FEE5FFE4F91819595959595952A
:100190009595807F892B8C938CC16130710509F016
:1001A0004DC0ACEEB0E02C91E981FA81EE0FFF1F5B
:1001B000EE5FFE4F8081918182959295907F982786
:1001C000807F9827922F9F70892B8C93A1EFB0E0AE
:1001D0008C91E981FA81EE0FFF1FEE5FFE4F908157
:1001E000907F8F70892B8C93A6EFB0E02C91E981E2
:1001F000FA81EE0FFF1FEE5FFE4F8081918188270D
:100200009F709595879595958795959587959595E3
:100210008795922F9F70892B8C93ABEFB0E08C91D8
:10022000E981FA81EE0FFF1FEE5FFE4F20813181E1
:100230002227307F8F70832B8C933BC162307105F6
:1002400009F049C0ADEEB0E08C91E981FA81EE0F82
:10025000FF1FEE5FFE4F90819F70807F892B8C93F4
:10026000A2EFB0E02C91E981FA81EE0FFF1FEE5F63
:10027000FE4F80819181807F9927959587959595EF
:1002800087959595879595958795922F907F892B42
:100290008C93A7EFB0E08C91E981FA81EE0FFF1FFC
:1002A000EE5FFE4F2081318122273F70807F832BBC
:1002B0008C93ACEFB0E08C91E981FA81EE0FFF1FD7
:1002C000EE5FFE4F91819595959595959595807FDB
:1002D000892B8C93EEC06330710509F04DC0ADEEF3
:1002E000B0E02C91E981FA81EE0FFF1FEE5FFE4F27
:1002F0008081918182959295907F9827807F982721
:10030000922F9F70892B8C93A2EFB0E08C91E981A2
:10031000FA81EE0FFF1FEE5FFE4F9081907F8F708E
:10032000892B8C93A7EFB0E02C91E981FA81EE0F35
:10033000FF1FEE5FFE4F8081918188279F7095950A
:100340008795959587959595879595958795922FFE
:100350009F70892B8C93ACEFB0E08C91E981FA818E
:10036000EE0FFF1FEE5FFE4F208131812227307F8D
:100370008F70832B8C939DC06430710509F049C048
:10038000AEEEB0E08C91E981FA81EE0FFF1FEE5FD7
:10039000FE4F90819F70807F892B8C93A3EFB0E0FC
:1003A0002C91E981FA81EE0FFF1FEE5FFE4F8081F5
:1003B0009181807F992795958795959587959595B6
:1003C000879595958795922F907F892B8C93A8EF91
:1003D000B0E08C91E981FA81EE0FFF1FEE5FFE4FD6
:1003E0002081318122273F70807F832B8C93ADEF5A
:1003F000B0E08C91E981FA81EE0FFF1FEE5FFE4FB6
:1004000091819595959595959595807F892B8C9360
:1004100050C06530710509F04CC0AEEEB0E02C91D3
:10042000E981FA81EE0FFF1FEE5FFE4F808191811F
:1004300082959295907F9827807F9827922F9F7022
:10044000892B8C93A3EFB0E08C91E981FA81EE0FB8
:10045000FF1FEE5FFE4F9081907F8F70892B8C93F2
:10046000A8EFB0E02C91E981FA81EE0FFF1FEE5F5B
:10047000FE4F8081918188279F70959587959595EE
:1004800087959595879595958795922F9F70892B40
:100490008C93ADEFB0E08C91E981FA81EE0FFF1FF4
:1004A000EE5FFE4F208131812227307F8F70832BBA
:1004B0008C930F900F90DF91CF910895CF92DF92A0
:1004C000EF92FF92CF93DF936B017C0181E0C8161E
:1004D000D104E104F104A1F183E0C816D104E104E0
:1004E000F10484F1D701C60181709927AA27B07859
:1004F000BB2354F40197A109B1098E6F9F6FAF6FB1
:10050000BF6F0196A11DB11D892B8A2B8B2BE1F0AA
:10051000C2E0D0E008C0C701B6010E941105672BF8
:10052000682B692B99F021969E010D2E000C440B2F
:10053000550B2C153D054E055F056CF381E007C09A
:1005400080E005C081E003C080E001C080E0DF9171
:10055000CF91FF90EF90DF90CF900895CF92DF92F0
:10056000EF92FF920F931F93CF93DF9300D0CDB7FD
:10057000DEB76B017C018A0124E630E040E050E008
:100580000E9411052AE030E040E050E00E94110591
:10059000B80180E3820F0E9468001A821982898163
:1005A0009A81883E934054F489819A8101969A8376
:1005B000898389819A81883E9340B4F30F5F1F4FEE
:1005C000C701B6012AE030E040E050E00E9411058A
:1005D000862FB801805D0E9468000F900F90DF9118
:1005E000CF911F910F91FF90EF90DF90CF900895E2
:1005F000EC01C12CD12C7601C394C701B6010E9435
:100600005E02882369F08CE191E00E94C504AE018E
:10061000C701B6010E94AE028CE191E00E94EC0499
:100620008FEFC81AD80AE80AF80AE7CF0E94A60393
:100630000A9724F00E94AB0381E0089580E00895BA
:10064000CFEED0E011E000E005C09881812F91113C
:10065000802F88830E9416038111F7CFFBCF83B1CF
:10066000881F8827881F90E0909327018093260198
:1006700020910001309101018217930731F090938E
:1006800001018093000181E0089580E008958C01CC
:10069000C1E0D0E00E942F038823E1F32196BE0140
:1006A00012F46F5F7F4F75956795072E000C880BCE
:1006B000990BA8010E94AE02EDCF0E944D000E944E
:1006C0005F0064E070E087E493E00E94B00360E0C4
:1006D00070E088EF92E00E94B0030E942003DC01EA
:1006E00015961C921E921497DB01ED91FC911197C7
:1006F000309721F48D939C930895F90124813581DD
:1007000021153105D1F7958384830895CF93DF9325
:1007100000D0CDB7DEB79A8389838091180190917C
:10072000190106960E945205892B59F489819A81F4
:10073000909319018093180161E070E006960E9481
:1007400072050F900F90DF91CF9108958091200155
:100750009091210108951092210110922001089595
:10076000CF93DF9300D0CDB7DEB7F894209122016C
:1007700030912301232B09F03FC022E032E0309377
:100780009A01209399012FE632E0309307022093DB
:1007900006022CED32E03093740220937302109223
:1007A000E1021092E0022F9AEF9AECE6F0E020814D
:1007B00020682083E1E6F0E0208121602083E1E8E9
:1007C000F0E0208128602083208125602083EFE6EF
:1007D000F0E020812260208327E831E03093890017
:1007E00020938800109285001092840021E030E070
:1007F000309323012093220120911A0130911B0193
:100800003A832983232BA9F0E981FA814481558118
:1008100050931B0140931A019183808373836283F9
:1008200015821482CF0106960E945205019749F560
:1008300001C0FFCF7894A0911801B0911901ED91FA
:10084000FC91119712968D919C9113970995F894AC
:100850006AE171E080911801909119010E946F0383
:100860008091240190912501009751F0FC01248191
:10087000358130932501209324010E94860301C015
:10088000FFCFE981FA81369689819A8187599F4FF6
:10089000918B808B938B828B64E271E089819A814A
:1008A0000E946F0378940F900F90DF91CF9108957D
:1008B000F89464E271E080911801909119010E940E
:1008C0006F038091240190912501009759F0FC015C
:1008D0002481358130932501209324010E948603D1
:1008E00078940895FFCF1F920F920FB60F921124A4
:1008F0002F933F934F935F936F937F938F939F9328
:10090000AF93BF93EF93FF931F9B0E945804FF91F7
:10091000EF91BF91AF919F918F917F916F915F9177
:100920004F913F912F910F900FBE0F901F901895F0
:100930001F920F920FB60F9211242F933F934F9354
:100940005F936F937F938F939F93AF93BF93EF9337
:10095000FF938091200190912101019690932101B4
:10096000809320010E945804FF91EF91BF91AF91B5
:100970009F918F917F916F915F914F913F912F91B7
:100980000F900FBE0F901F901895F894FC012081D6
:100990003181232B29F421E030E0318320831AC0F8
:1009A000BC016E5F7F4F80911801909119010E94E8
:1009B0006F038091240190912501009751F0FC0173
:1009C0002481358130932501209324010E948603E0
:1009D00001C0FFCF78940895CF93DF93F894FC0182
:1009E00022813381232BB1F0EC0164E271E080912C
:1009F0001801909119010E946F038A819B810097D1
:100A000041F0FC01248135813B832A830E948603C7
:100A100004C0FFCFFC01118210827894DF91CF9146
:100A20000895052E97FB1EF400940E94280557FD9B
:100A300007D00E94300507FC03D04EF40C94280523
:100A400050954095309521953F4F4F4F5F4F0895FA
:100A500090958095709561957F4F8F4F9F4F08952A
:100A6000A1E21A2EAA1BBB1BFD010DC0AA1FBB1FB2
:100A7000EE1FFF1FA217B307E407F50720F0A21B24
:100A8000B30BE40BF50B661F771F881F991F1A9491
:100A900069F760957095809590959B01AC01BD01BB
:100AA000CF010895DC012D923D924D925D926D92A1
:100AB0007D928D929D92AD92BD92CD92DD92ED92FE
:100AC000FD920D931D93CD93DD93FF91EF918DB723
:100AD0008D938EB78D938FB78D93ED93FD9388276C
:100AE00099270994DC01CB0181309105811D2D905E
:100AF0003D904D905D906D907D908D909D90AD90CE
:100B0000BD90CD90DD90ED90FD900D911D91CD911A
:100B1000DD91ED91FD910D90F894FEBF0FBEEDBFFC
:0A0B2000ED91FD910994F894FFCFC8
:100B2A00010051158020111E111B500B411B411F42
:0C0B3A001101511F510B00002801950112
:00000001FF
