:100000000C942E000C944B000C944B000C94620446
:100010000C944B000C944B000C944B000C948A04F1
:100020000C944B000C944B000C944B000C944B0024
:100030000C944B000C944B000C944B000C944B0014
:100040000C944B000C944B000C944B000C944B0004
:100050000C944B000C944B000C944B0011241FBECD
:10006000CFEFD4E0DEBFCDBF11E0A0E0B1E0EEE71E
:10007000FAE002C005900D92AE31B107D9F723E046
:10008000AEE1B1E001C01D92AB34B207E1F70E94CE
:100090006A030C943D050C940000E1E6F0E080E872
:1000A0008083108287EB8093E50087E08093E600F1
:1000B0008FE08093E70080EC8093E400089584E073
:1000C00080938100E1E6F0E0808181608083089583
:1000D000CF93DF9300D0CDB7DEB71A821982663096
:1000E000710508F0E6C190ED980F9A3028F08AE08B
:1000F00090E09A83898304C090E0C0979A838983B3
:100100006115710509F049C0ACEEB0E08C91E98150
:10011000FA81EE0FFF1FEC5FFE4F90819F70807F92
:10012000892B8C93A1EFB0E02C91E981FA81EE0F3D
:10013000FF1FEC5FFE4F80819181807F992795950D
:100140008795959587959595879595958795922F00
:10015000907F892B8C93A6EFB0E08C91E981FA8196
:10016000EE0FFF1FEC5FFE4F2081318122273F7091
:10017000807F832B8C93ABEFB0E08C91E981FA8187
:10018000EE0FFF1FEC5FFE4F91819595959595952C
:100190009595807F892B8C938CC16130710509F016
:1001A0004DC0ACEEB0E02C91E981FA81EE0FFF1F5B
:1001B000EC5FFE4F8081918182959295907F982788
:1001C000807F9827922F9F70892B8C93A1EFB0E0AE
:1001D0008C91E981FA81EE0FFF1FEC5FFE4F908159
:1001E000907F8F70892B8C93A6EFB0E02C91E981E2
:1001F000FA81EE0FFF1FEC5FFE4F8081918188270F
:100200009F709595879595958795959587959595E3
:100210008795922F9F70892B8C93ABEFB0E08C91D8
:10022000E981FA81EE0FFF1FEC5FFE4F20813181E3
:100230002227307F8F70832B8C933BC162307105F6
:1002400009F049C0ADEEB0E08C91E981FA81EE0F82
:10025000FF1FEC5FFE4F90819F70807F892B8C93F6
:10026000A2EFB0E02C91E981FA81EE0FFF1FEC5F65
:10027000FE4F80819181807F9927959587959595EF
:1002800087959595879595958795922F907F892B42
:100290008C93A7EFB0E08C91E981FA81EE0FFF1FFC
:1002A000EC5FFE4F2081318122273F70807F832BBE
:1002B0008C93ACEFB0E08C91E981FA81EE0FFF1FD7
:1002C000EC5FFE4F91819595959595959595807FDD
:1002D000892B8C93EEC06330710509F04DC0ADEEF3
:1002E000B0E02C91E981FA81EE0FFF1FEC5FFE4F29
:1002F0008081918182959295907F9827807F982721
:10030000922F9F70892B8C93A2EFB0E08C91E981A2
:10031000FA81EE0FFF1FEC5FFE4F9081907F8F7090
:10032000892B8C93A7EFB0E02C91E981FA81EE0F35
:10033000FF1FEC5FFE4F8081918188279F7095950C
:100340008795959587959595879595958795922FFE
:100350009F70892B8C93ACEFB0E08C91E981FA818E
:10036000EE0FFF1FEC5FFE4F208131812227307F8F
:100370008F70832B8C939DC06430710509F049C048
:10038000AEEEB0E08C91E981FA81EE0FFF1FEC5FD9
:10039000FE4F90819F70807F892B8C93A3EFB0E0FC
:1003A0002C91E981FA81EE0FFF1FEC5FFE4F8081F7
:1003B0009181807F992795958795959587959595B6
:1003C000879595958795922F907F892B8C93A8EF91
:1003D000B0E08C91E981FA81EE0FFF1FEC5FFE4FD8
:1003E0002081318122273F70807F832B8C93ADEF5A
:1003F000B0E08C91E981FA81EE0FFF1FEC5FFE4FB8
:1004000091819595959595959595807F892B8C9360
:1004100050C06530710509F04CC0AEEEB0E02C91D3
:10042000E981FA81EE0FFF1FEC5FFE4F8081918121
:1004300082959295907F9827807F9827922F9F7022
:10044000892B8C93A3EFB0E08C91E981FA81EE0FB8
:10045000FF1FEC5FFE4F9081907F8F70892B8C93F4
:10046000A8EFB0E02C91E981FA81EE0FFF1FEC5F5D
:10047000FE4F8081918188279F70959587959595EE
:1004800087959595879595958795922F9F70892B40
:100490008C93ADEFB0E08C91E981FA81EE0FFF1FF4
:1004A000EC5FFE4F208131812227307F8F70832BBC
:1004B0008C930F900F90DF91CF910895CF92DF92A0
:1004C000EF92FF92CF93DF936B017C0181E0C8161E
:1004D000D104E104F104A1F183E0C816D104E104E0
:1004E000F10484F1D701C60181709927AA27B07859
:1004F000BB2354F40197A109B1098E6F9F6FAF6FB1
:10050000BF6F0196A11DB11D892B8A2B8B2BE1F0AA
:10051000C2E0D0E008C0C701B6010E94BB04672B4F
:10052000682B692B99F021969E010D2E000C440B2F
:10053000550B2C153D054E055F056CF381E007C09A
:1005400080E005C081E003C080E001C080E0DF9171
:10055000CF91FF90EF90DF90CF900895CF92DF92F0
:10056000EF92FF920F931F93CF93DF9300D0CDB7FD
:10057000DEB76B017C018A0124E630E040E050E008
:100580000E94BB042AE030E040E050E00E94BB043F
:10059000B80180E3820F0E9468001A821982898163
:1005A0009A81883E934054F489819A8101969A8376
:1005B000898389819A81883E9340B4F30F5F1F4FEE
:1005C000C701B6012AE030E040E050E00E94BB04E1
:1005D000862FB801805D0E9468000F900F90DF9118
:1005E000CF911F910F91FF90EF90DF90CF900895E2
:1005F000EC01C12CD12C76016894C1F8C701B60179
:100600000E945E02882329F0AE01C701B6010E9454
:10061000AE028FEFC81AD80AE80AF80AEFCF0E9494
:100620009E031816190624F40E94A30381E008957E
:1006300080E008950F931F93CF93DF93CFEED0E028
:1006400011E000E005C09881812F9111802F8883EF
:100650000E940F038111F7CFDF91CF911F910F916E
:10066000089583B1881F8827881F90E09093250103
:100670008093240120910201309103018217930796
:1006800031F0909303018093020181E0089580E0AE
:100690000895CF93DF93EC010E9431038823B9F0D2
:1006A0008091000190910101019690930101809346
:1006B0000001BC01992314F46F5F7F4F7595679516
:1006C000072E000C880B990BAE010E94AE02DF9141
:1006D000CF9108950E944D000E945F0064E070E099
:1006E00089E493E00E94A80361E070E08AE193E06E
:1006F0000E94A80380E090E00E94F802CF93DF936D
:1007000000D0CDB7DEB79A83898380911A0190918A
:100710001B0106960E94FC04892B59F489819A8159
:1007200090931B0180931A0161E070E006960E948D
:100730001C050F900F90DF91CF91089580911E01BD
:1007400090911F01089510921F0110921E010895AB
:10075000CF93DF9300D0CDB7DEB7F894209120017E
:1007600030912101232B09F03FC024E032E0309387
:100770009C0120939B0121E732E0309309022093F2
:1007800008022EED32E0309376022093750210922B
:10079000E3021092E2022F9AEF9AECE6F0E0208159
:1007A00020682083E1E6F0E0208121602083E1E8F9
:1007B000F0E0208128602083208125602083EFE6FF
:1007C000F0E020812260208326E43FE0309389001E
:1007D00020938800109285001092840021E030E080
:1007E000309321012093200120911C0130911D01A3
:1007F0003A832983232BA9F0E981FA814481558129
:1008000050931D0140931C01918380837383628305
:1008100015821482CF0106960E94FC04019779F597
:1008200001C0FFCF7894A0911A01B0911B01ED9106
:10083000FC91119712968D919C9113970995F894BC
:10084000E0911A01F0911B0180911C0190911D0112
:1008500095838483F0931D01E0931C018091220114
:1008600090912301009751F0FC0124813581309350
:100870002301209322010E947E0301C0FFCFE98162
:10088000FA81369689819A8187599F4F918B808B07
:10089000938B828BE0911A01F0911B0180912201D0
:1008A0009091230195838483F0932301E0932201A7
:1008B00089819A810E947E0378940F900F90DF9136
:1008C000CF9108951F920F920FB60F9211242F937C
:1008D0003F934F935F936F937F938F939F93AF93C8
:1008E000BF93EF93FF9364E070E089E493E00E948C
:1008F000A803FF91EF91BF91AF919F918F917F914D
:100900006F915F914F913F912F910F900FBE0F907C
:100910001F9018951F920F920FB60F9211242F93CC
:100920003F934F935F936F937F938F939F93AF9377
:10093000BF93EF93FF9380911E0190911F01019649
:1009400090931F0180931E0161E070E08AE193E0C3
:100950000E94A803FF91EF91BF91AF919F918F915A
:100960007F916F915F914F913F912F910F900FBEAB
:100970000F901F901895052E97FB1EF400940E946F
:10098000D20457FD07D00E94DA0407FC03D04EF4CE
:100990000C94D20450954095309521953F4F4F4F80
:1009A0005F4F089590958095709561957F4F8F4F1B
:1009B0009F4F0895A1E21A2EAA1BBB1BFD010DC07B
:1009C000AA1FBB1FEE1FFF1FA217B307E407F507FF
:1009D00020F0A21BB30BE40BF50B661F771F881FDB
:1009E000991F1A9469F760957095809590959B0171
:1009F000AC01BD01CF010895DC012D923D924D92D5
:100A00005D926D927D928D929D92AD92BD92CD92AE
:100A1000DD92ED92FD920D931D93CD93DD93FF91A9
:100A2000EF918DB78D938EB78D938FB78D93ED9397
:100A3000FD93882799270994DC01CB01813091052A
:100A4000811D2D903D904D905D906D907D908D908D
:100A50009D90AD90BD90CD90DD90ED90FD900D916D
:100A60001D91CD91DD91ED91FD910D90F894FEBF1A
:0E0A70000FBEEDBFED91FD910994F894FFCFFC
:100A7E000100010051158020111E111B500B411B4E
:0E0A8E00411F1101511F510B00002A01970159
:00000001FF
