S01700004763634170706C69636174696F6E312E737265635B
S11300000C942E000C944B000C944B000C94610542
S11300100C944B000C944B000C944B000C949005E6
S11300200C944B000C944B000C944B000C944B0020
S11300300C944B000C944B000C944B000C944B0010
S11300400C944B000C944B000C944B000C944B0000
S11300500C944B000C944B000C944B0011241FBEC9
S1130060CFEFD4E0DEBFCDBF11E0A0E0B1E0E0E42B
S1130070FFE002C005900D92A432B107D9F723E046
S1130080A4E2B1E001C01D92A135B207E1F70E94DC
S1130090AB040C949E070C940000CF93DF93CDB770
S11300A0DEB781E690E020E8FC01208381E690E061
S11300B0FC01108285EE90E027EBFC01208386EEA4
S11300C090E027E0FC01208387EE90E02FE0FC0124
S11300D0208384EE90E020ECFC0120830000DF917B
S11300E0CF910895CF93DF93CDB7DEB781E890E049
S11300F024E0FC01208381E690E021E630E0F90170
S113010020812160FC0120830000DF91CF910895BC
S1130110CF93DF9300D000D01F92CDB7DEB78B838F
S11301207D836C831A8219828C819D8199230CF4BE
S11301309BC28C819D8106970CF096C28B81803383
S113014018F08B818A3328F08AE090E09A838983BF
S113015006C08B81882F90E0C0979A8389838C8115
S11301609D81892B09F066C08CEE90E02CEE30E086
S1130170F9012081422F407F29813A81220F331FC8
S113018020503F4FF901208131812F70242BFC0135
S1130190208381EF90E021EF30E0F9012081422FAC
S11301A0407F29813A81220F331F20503F4FF901AC
S11301B020813181207F33273595279535952795E3
S11301C03595279535952795242BFC01208386EFBB
S11301D090E026EF30E0F9012081422F407F298111
S11301E03A81220F331F20503F4FF9012081318182
S11301F022273F70232F330F330B242BFC01208342
S11302008BEF90E02BEF30E0F9012081422F407F0B
S113021029813A81220F331F20503F4FF901208159
S1130220318120E13202212D330B1124242BFC01D6
S113023020831BC28C819D81019709F067C08CEEDD
S113024090E02CEE30E0F9012081422F4F7029819B
S11302503A81220F331F20503F4FF9012081318111
S113026022953295307F3227207F3227242BFC01C0
S1130270208381EF90E021EF30E0F9012081422FCB
S11302804F7029813A81220F331F20503F4FF901CB
S113029020813181207F242BFC01208386EF90E094
S11302A026EF30E0F9012081422F4F7029813A81F5
S11302B0220F331F20503F4FF90120813181222723
S11302C03F7035952795359527953595279535951F
S11302D02795242BFC0120838BEF90E02BEF30E05B
S11302E0F9012081422F4F7029813A81220F331F57
S11302F020503F4FF901208131812227307F232F65
S1130300330F330B242BFC012083AFC18C819D81DF
S1130310029709F066C08DEE90E02DEE30E0F90111
S11303202081422F407F29813A81220F331F2050A0
S11303303F4FF901208131812F70242BFC01208350
S113034082EF90E022EF30E0F9012081422F407FDC
S113035029813A81220F331F20503F4FF901208118
S11303603181207F33273595279535952795359508
S1130370279535952795242BFC01208387EF90E062
S113038027EF30E0F9012081422F407F29813A8113
S1130390220F331F20503F4FF90120813181222742
S11303A03F70232F330F330B242BFC0120838CEF5E
S11303B090E02CEF30E0F9012081422F407F298129
S11303C03A81220F331F20503F4FF90120813181A0
S11303D020E13202212D330B1124242BFC01208334
S11303E044C18C819D81039709F067C08DEE90E034
S11303F02DEE30E0F9012081422F4F7029813A819E
S1130400220F331F20503F4FF90120813181229563
S11304103295307F3227207F3227242BFC01208322
S113042082EF90E022EF30E0F9012081422F4F70FB
S113043029813A81220F331F20503F4FF901208137
S11304403181207F242BFC01208387EF90E027EF6C
S113045030E0F9012081422F4F7029813A81220F27
S1130460331F20503F4FF9012081318122273F70F3
S11304703595279535952795359527953595279560
S1130480242BFC0120838CEF90E02CEF30E0F90169
S11304902081422F4F7029813A81220F331F20502F
S11304A03F4FF901208131812227307F232F330FE1
S11304B0330B242BFC012083D8C08C819D810497AD
S11304C009F066C08EEE90E02EEE30E0F901208156
S11304D0422F407F29813A81220F331F20503F4F02
S11304E0F901208131812F70242BFC01208383EFBB
S11304F090E023EF30E0F9012081422F407F2981F1
S11305003A81220F331F20503F4FF901208131815E
S1130510207F33273595279535952795359527954C
S113052035952795242BFC01208388EF90E028EF54
S113053030E0F9012081422F407F29813A81220F46
S1130540331F20503F4FF9012081318122273F7012
S1130550232F330F330B242BFC0120838DEF90E0EA
S11305602DEF30E0F9012081422F407F29813A812B
S1130570220F331F20503F4FF9012081318120E1A8
S11305803202212D330B1124242BFC0120836DC056
S11305908C819D81059709F068C08EEE90E02EEE67
S11305A030E0F9012081422F4F7029813A81220FD6
S11305B0331F20503F4FF90120813181229532951C
S11305C0307F3227207F3227242BFC01208383EFC6
S11305D090E023EF30E0F9012081422F4F70298110
S11305E03A81220F331F20503F4FF901208131817E
S11305F0207F242BFC01208388EF90E028EF30E05B
S1130600F9012081422F4F7029813A81220F331F33
S113061020503F4FF9012081318122273F703595C9
S11306202795359527953595279535952795242B29
S1130630FC0120838DEF90E02DEF30E0F901208163
S1130640422F4F7029813A81220F331F20503F4F90
S1130650F901208131812227307F232F330F330B7F
S1130660242BFC01208301C000000F900F900F90F9
S11306700F900F90DF91CF910895CF93DF9300D027
S113068000D000D0CDB7DEB76B837C838D839E838F
S11306908B819C81AD81BE810197A105B10511F4C7
S11306A080E030C082E090E09A8389831BC0898116
S11306B09A819C01990F440B550B8B819C81AD81D0
S11306C0BE81BC01CD010E941C07DC01CB01892B3A
S11306D08A2B8B2B11F480E015C089819A810196B5
S11306E09A83898389819A819C01990F440B550BC4
S11306F08B819C81AD81BE81281739074A075B072E
S1130700B4F281E026960FB6F894DEBF0FBECDBFDB
S1130710DF91CF910895CF93DF93CDB7DEB72A97BA
S11307200FB6F894DEBF0FBECDBF6D837E838F837B
S113073098875A87498789859A859A8389838D8181
S11307409E81AF81B88524E630E040E050E0BC01F2
S1130750CD010E941C07DC01CB012AE030E040E01F
S113076050E0BC01CD010E941C07DA01C90120E35D
S1130770280F89819A81BC01822F0E9488001C82E3
S11307801B8205C08B819C8101969C838B838B810A
S11307909C81883E9340B4F389819A8101969A831F
S11307A089838D819E81AF81B8852AE030E040E065
S11307B050E0BC01CD010E941C07DC01CB0120E309
S11307C0280F89819A81BC01822F0E948800000031
S11307D02A960FB6F894DEBF0FBECDBFDF91CF913E
S11307E00895CF93DF9300D000D000D0CDB7DEB70B
S11307F09E838D8382E090E0A0E0B0E089839A83B9
S1130800AB83BC8389819A81AB81BC81BC01CD015E
S11308100E943D03882359F02D813E8189819A816C
S1130820AB81BC81A901BC01CD010E948B038981EC
S11308309A81AB81BC810196A11DB11D89839A83E4
S1130840AB83BC83DFCFCF93DF93CDB7DEB780918B
S11308502801909129011816190634F410922901DF
S11308601092280181E001C080E0DF91CF910895CA
S1130870CF93DF9300D0CDB7DEB79A8389830CC0C2
S11308808FEE90E02FEE30E0F901308121E0332348
S113089009F020E0FC0120830E942304882381F7CF
S11308A080E291E00E94C106EACFCF93DF93CDB7F7
S11308B0DEB783E290E0FC018081881F8827881FCF
S11308C0882F90E090932B0180932A0120911601A8
S11308D03091170180912A0190912B012817390733
S11308E051F080912A0190912B01909317018093EC
S11308F0160181E001C080E0DF91CF910895CF938C
S1130900DF9300D000D0CDB7DEB79C838B8381E02A
S113091090E09A8389838CE191E00E94C1060E9451
S113092055048823C1F389819A8101969A83898326
S113093089819A8199230CF4019695958795092EBE
S1130940000CAA0BBB0B2B813C81A901BC01CD017E
S11309500E948B03E0CFCF93DF93CDB7DEB70E9425
S11309604D000E94720064E070E08FE794E00E9402
S11309703C0661E070E088E394E00E943C0680E07D
S113098090E00E94F10380E090E0DF91CF91089520
S1130990CF93DF93CDB7DEB78CE191E0DF91CF91B8
S11309A00895CF93DF93CDB7DEB780E291E0DF9176
S11309B0CF910895CF93DF9300D0CDB7DEB71A82DD
S11309C0198220C089819A819C012F5F3F4F4DE697
S11309D0429FC001439F900D11249C0123563E4F1A
S11309E049815A816DE6649FC001659F900D112471
S11309F08F559E4FFC013183208389819A81019612
S1130A009A83898389819A810397E4F21092E90297
S1130A101092E80285E290E025E230E0F9012081BD
S1130A202068FC0120838DE390E02DE330E0F901A0
S1130A3020812068FC0120838CE690E02CE630E0E5
S1130A40F90120812068FC01208381E690E021E601
S1130A5030E0F90120812160FC01208381E890E0ED
S1130A6021E830E0F90120812860FC01208381E83D
S1130A7090E021E830E0F90120812560FC01208329
S1130A808FE690E02FE630E0F90120812260FC013E
S1130A90208388E890E026E43FE0FC013183208352
S1130AA084E890E0FC011182108281E090E0909350
S1130AB027018093260100000F900F90DF91CF91C2
S1130AC008951F920F9200905F000F9211242F93AC
S1130AD03F934F935F936F937F938F939F93AF93C2
S1130AE0BF93EF93FF93CF93DF93CDB7DEB70E940D
S1130AF0C8040E94F1060000DF91CF91FF91EF91AD
S1130B00BF91AF919F918F917F916F915F914F9121
S1130B103F912F910F9000925F000F901F901895B6
S1130B201F920F9200905F000F9211242F933F9316
S1130B304F935F936F937F938F939F93AF93BF93E1
S1130B40EF93FF93CF93DF93CDB7DEB78091280166
S1130B5090912901019690932901809328010E9484
S1130B60D1040E94F1060000DF91CF91FF91EF9133
S1130B70BF91AF919F918F917F916F915F914F91B1
S1130B803F912F910F9000925F000F901F90189546
S1130B90CF93DF9300D000D0CDB7DEB79A8389839B
S1130BA07C836B838B819C81FC01208131818981D1
S1130BB09A81FC01358324838B819C8129813A812C
S1130BC0FC013183208300000F900F900F900F9051
S1130BD0DF91CF910895CF93DF9300D000D0CDB7AC
S1130BE0DEB79C838B838B819C81FC018081918106
S1130BF09A8389838B819C81FC0180819181892BDB
S1130C0071F08B819C81FC0180819181FC012481A4
S1130C1035818B819C81FC013183208301C0FFCF0E
S1130C2089819A810F900F900F900F90DF91CF914F
S1130C300895CF93DF9300D0CDB7DEB79A8389832D
S1130C4080911A0190911B0106960E945D07892BE1
S1130C5069F489819A8190931B0180931A01898197
S1130C609A81069661E070E00E947D0700000F9073
S1130C700F90DF91CF910895CF93DF9300D000D0F0
S1130C8000D0CDB7DEB79C838B837E836D83F894CD
S1130C908091260190912701892B11F40E94DA0496
S1130CA088E191E00E94EB059A83898389819A8186
S1130CB02B813C81FC013183208389819A812D81A0
S1130CC03E81FC013383228389819A81FC01158250
S1130CD0148289819A8106960E945D07019701F525
S1130CE0789480911A0190911B01FC01208131813B
S1130CF080911A0190911B01FC0182819381F90179
S1130D000995F89480911A0190911B0168E171E0B2
S1130D100E94C80584E291E00E94EB050E94190636
S1130D2089819A810696409629813A81235E3F4FB4
S1130D30245B3F4FFC013183208389819A8106968D
S1130D40429629813A81235E3F4F245B3F4FFC0149
S1130D503183208380911A0190911B0164E271E038
S1130D600E94C80589819A810E941906789400001E
S1130D7026960FB6F894DEBF0FBECDBFDF91CF919C
S1130D800895CF93DF9300D0CDB7DEB79A838983DC
S1130D90F89489819A81FC0180819181892B41F4A5
S1130DA089819A8121E030E0FC013183208312C0E3
S1130DB089819A819C012E5F3F4F80911A01909105
S1130DC01B01B9010E94C80584E291E00E94EB0571
S1130DD00E941906789400000F900F90DF91CF9134
S1130DE00895CF93DF9300D0CDB7DEB79A8389837C
S1130DF0F89489819A81FC0182819381892B81F005
S1130E0080911A0190911B0164E271E00E94C8056F
S1130E1089819A8102960E94EB050E94190605C0F9
S1130E2089819A81FC0111821082789400000F90CC
S1130E300F90DF91CF910895052E97FB1EF4009437
S1130E400E94330757FD07D00E943B0707FC03D0DD
S1130E504EF40C94330750954095309521953F4FAF
S1130E604F4F5F4F089590958095709561957F4F92
S1130E708F4F9F4F0895A1E21A2EAA1BBB1BFD01A1
S1130E800DC0AA1FBB1FEE1FFF1FA217B307E40765
S1130E90F50720F0A21BB30BE40BF50B661F771FBD
S1130EA0881F991F1A9469F760957095809590959D
S1130EB09B01AC01BD01CF010895DC012D923D924F
S1130EC04D925D926D927D928D929D92AD92BD9266
S1130ED0CD92DD92ED92FD920D931D93CD93DD9312
S1130EE0FF91EF918DB78D938EB78D938FB78D93BF
S1130EF0ED93FD93882799270994DC01CB01813078
S1130F009105811D2D903D904D905D906D907D904B
S1130F108D909D90AD90BD90CD90DD90ED90FD9025
S1130F200D911D91CD91DD91ED91FD910D90F89470
S1130F30FEBF0FBEEDBFED91FD910994F894FFCF74
S1130F4051158020111E111B500B411B411F110113
S1130F50511F510B000001009D01300101000000F0
S1070F600100000088
S9030000FC
