S01700004763634170706C69636174696F6E312E737265635B
S11300000C942E000C944B000C944B000C9485041F
S11300100C944B000C944B000C944B000C94AB04CC
S11300200C944B000C944B000C944B000C944B0020
S11300300C944B000C944B000C944B000C944B0010
S11300400C944B000C944B000C944B000C944B0000
S11300500C944B000C944B000C944B0011241FBEC9
S1130060CFEFD4E0DEBFCDBF11E0A0E0B1E0ECEB18
S1130070FAE002C005900D92A632B107D9F723E049
S1130080A6E2B1E001C01D92A335B207E1F70E94D8
S11300906E030C945C050C940000E1E6F0E080E84B
S11300A08083108287EB8093E50087E08093E600ED
S11300B08FE08093E70080EC8093E400089584E06F
S11300C080938100E1E6F0E080818160808308957F
S11300D0CF93DF9300D0CDB7DEB71A821982663092
S11300E0710508F0E6C190ED980F9A3028F08AE087
S11300F090E09A83898304C090E0C0979A838983AF
S11301006115710509F049C0ACEEB0E08C91E9814C
S1130110FA81EE0FFF1FEC5FFE4F90819F70807F8E
S1130120892B8C93A1EFB0E02C91E981FA81EE0F39
S1130130FF1FEC5FFE4F80819181807F9927959509
S11301408795959587959595879595958795922FFC
S1130150907F892B8C93A6EFB0E08C91E981FA8192
S1130160EE0FFF1FEC5FFE4F2081318122273F708D
S1130170807F832B8C93ABEFB0E08C91E981FA8183
S1130180EE0FFF1FEC5FFE4F918195959595959528
S11301909595807F892B8C938CC16130710509F012
S11301A04DC0ACEEB0E02C91E981FA81EE0FFF1F57
S11301B0EC5FFE4F8081918182959295907F982784
S11301C0807F9827922F9F70892B8C93A1EFB0E0AA
S11301D08C91E981FA81EE0FFF1FEC5FFE4F908155
S11301E0907F8F70892B8C93A6EFB0E02C91E981DE
S11301F0FA81EE0FFF1FEC5FFE4F8081918188270B
S11302009F709595879595958795959587959595DF
S11302108795922F9F70892B8C93ABEFB0E08C91D4
S1130220E981FA81EE0FFF1FEC5FFE4F20813181DF
S11302302227307F8F70832B8C933BC162307105F2
S113024009F049C0ADEEB0E08C91E981FA81EE0F7E
S1130250FF1FEC5FFE4F90819F70807F892B8C93F2
S1130260A2EFB0E02C91E981FA81EE0FFF1FEC5F61
S1130270FE4F80819181807F9927959587959595EB
S113028087959595879595958795922F907F892B3E
S11302908C93A7EFB0E08C91E981FA81EE0FFF1FF8
S11302A0EC5FFE4F2081318122273F70807F832BBA
S11302B08C93ACEFB0E08C91E981FA81EE0FFF1FD3
S11302C0EC5FFE4F91819595959595959595807FD9
S11302D0892B8C93EEC06330710509F04DC0ADEEEF
S11302E0B0E02C91E981FA81EE0FFF1FEC5FFE4F25
S11302F08081918182959295907F9827807F98271D
S1130300922F9F70892B8C93A2EFB0E08C91E9819E
S1130310FA81EE0FFF1FEC5FFE4F9081907F8F708C
S1130320892B8C93A7EFB0E02C91E981FA81EE0F31
S1130330FF1FEC5FFE4F8081918188279F70959508
S11303408795959587959595879595958795922FFA
S11303509F70892B8C93ACEFB0E08C91E981FA818A
S1130360EE0FFF1FEC5FFE4F208131812227307F8B
S11303708F70832B8C939DC06430710509F049C044
S1130380AEEEB0E08C91E981FA81EE0FFF1FEC5FD5
S1130390FE4F90819F70807F892B8C93A3EFB0E0F8
S11303A02C91E981FA81EE0FFF1FEC5FFE4F8081F3
S11303B09181807F992795958795959587959595B2
S11303C0879595958795922F907F892B8C93A8EF8D
S11303D0B0E08C91E981FA81EE0FFF1FEC5FFE4FD4
S11303E02081318122273F70807F832B8C93ADEF56
S11303F0B0E08C91E981FA81EE0FFF1FEC5FFE4FB4
S113040091819595959595959595807F892B8C935C
S113041050C06530710509F04CC0AEEEB0E02C91CF
S1130420E981FA81EE0FFF1FEC5FFE4F808191811D
S113043082959295907F9827807F9827922F9F701E
S1130440892B8C93A3EFB0E08C91E981FA81EE0FB4
S1130450FF1FEC5FFE4F9081907F8F70892B8C93F0
S1130460A8EFB0E02C91E981FA81EE0FFF1FEC5F59
S1130470FE4F8081918188279F70959587959595EA
S113048087959595879595958795922F9F70892B3C
S11304908C93ADEFB0E08C91E981FA81EE0FFF1FF0
S11304A0EC5FFE4F208131812227307F8F70832BB8
S11304B08C930F900F90DF91CF910895CF92DF929C
S11304C0EF92FF92CF93DF936B017C0181E0C8161A
S11304D0D104E104F104A1F183E0C816D104E104DC
S11304E0F10484F1D701C60181709927AA27B07855
S11304F0BB2354F40197A109B1098E6F9F6FAF6FAD
S1130500BF6F0196A11DB11D892B8A2B8B2BE1F0A6
S1130510C2E0D0E008C0C701B6010E94DA04672B2C
S1130520682B692B99F021969E010D2E000C440B2B
S1130530550B2C153D054E055F056CF381E007C096
S113054080E005C081E003C080E001C080E0DF916D
S1130550CF91FF90EF90DF90CF900895CF92DF92EC
S1130560EF92FF920F931F93CF93DF9300D0CDB7F9
S1130570DEB76B017C018A0124E630E040E050E004
S11305800E94DA042AE030E040E050E00E94DA04FD
S1130590B80180E3820F0E9468001A82198289815F
S11305A09A81883E934054F489819A8101969A8372
S11305B0898389819A81883E9340B4F30F5F1F4FEA
S11305C0C701B6012AE030E040E050E00E94DA04BE
S11305D0862FB801805D0E9468000F900F90DF9114
S11305E0CF911F910F91FF90EF90DF90CF900895DE
S11305F0EC01C12CD12C76016894C1F8C701B60175
S11306000E945E02882329F0AE01C701B6010E9450
S1130610AE028FEFC81AD80AE80AF80AEFCF809121
S11306202601909127011816190634F41092270117
S11306301092260181E0089580E008950F931F939E
S1130640CF93DF93CFEED0E011E000E005C09881B6
S1130650812F9111802F88830E940F038111F7CF7E
S1130660DF91CF911F910F91089583B1881F88273F
S1130670881F90E090932D0180932C01209102011A
S1130680309103018217930731F090930301809313
S1130690020181E0089580E00895CF93DF93EC0197
S11306A00E9435038823B9F08091000190910101E3
S11306B001969093010180930001BC01992314F4E5
S11306C06F5F7F4F75956795072E000C880B990B0C
S11306D0AE010E94AE02DF91CF9108950E944D00B9
S11306E00E945F0064E070E08DE493E00E94A20346
S11306F061E070E08EE193E00E94A20380E090E06C
S11307000E94F802CF93DF9300D0CDB7DEB79A836F
S11307108983809122019091230106960E941B05F2
S1130720892B59F489819A81909323018093220122
S113073061E070E006960E943B050F900F90DF91F8
S1130740CF910895CF93DF9300D0CDB7DEB7F8945F
S11307502091280130912901232B09F03FC02CE07E
S113076032E03093A4012093A30129E732E03093CF
S113077011022093100226EE32E030937E02209381
S11307807D021092EB021092EA022F9AEF9AECE6A5
S1130790F0E0208120682083E1E6F0E02081216000
S11307A02083E1E8F0E02081286020832081256017
S11307B02083EFE6F0E020812260208326E43FE0FE
S11307C03093890020938800109285001092840051
S11307D021E030E030932901209328012091240165
S11307E0309125013A832983232BA9F0E981FA81E9
S11307F04481558150932501409324019183808342
S11308007383628315821482CF0106960E941B05AE
S1130810019779F501C0FFCF7894A0912201B0919E
S11308202301ED91FC91119712968D919C91139750
S11308300995F894E0912201F0912301809124011B
S11308409091250195838483F0932501E0932401FD
S113085080912A0190912B01009751F0FC01248191
S1130860358130932B0120932A010E94820301C019
S1130870FFCFE981FA81369689819A8187599F4F02
S1130880918B808B938B828BE0912201F0912301D9
S113089080912A0190912B0195838483F0932B01FD
S11308A0E0932A0189819A810E94820378940F90AF
S11308B00F90DF91CF910895FC01F8948281938188
S11308C0892BF9F0A0912201B091230180912A0192
S11308D090912B0115969C938E931497B0932B01B2
S11308E0A0932A0182819381009751F0DC01149630
S11308F02D913C911597338322830E94820303C078
S1130900FFCF11821082789408951F920F920FB630
S11309100F9211242F933F934F935F936F937F9381
S11309208F939F93AF93BF93EF93FF938EE191E0E7
S11309300E945C04FF91EF91BF91AF919F918F91C1
S11309407F916F915F914F913F912F910F900FBEC7
S11309500F901F9018951F920F920FB60F921124AB
S11309602F933F934F935F936F937F938F939F93B3
S1130970AF93BF93EF93FF9380912601909127014A
S1130980019690932701809326018AE191E00E94C9
S11309905C04FF91EF91BF91AF919F918F917F91F3
S11309A06F915F914F913F912F910F900FBE0F90D8
S11309B01F901895052E97FB1EF400940E94F104D5
S11309C057FD07D00E94F90407FC03D04EF40C94A1
S11309D0F10450954095309521953F4F4F4F5F4F0F
S11309E0089590958095709561957F4F8F4F9F4F97
S11309F00895A1E21A2EAA1BBB1BFD010DC0AA1F5C
S1130A00BB1FEE1FFF1FA217B307E407F50720F073
S1130A10A21BB30BE40BF50B661F771F881F991FEE
S1130A201A9469F760957095809590959B01AC0137
S1130A30BD01CF010895DC012D923D924D925D924E
S1130A406D927D928D929D92AD92BD92CD92DD92EA
S1130A50ED92FD920D931D93CD93DD93FF91EF9154
S1130A608DB78D938EB78D938FB78D93ED93FD9343
S1130A70882799270994DC01CB0181309105811DD8
S1130A802D903D904D905D906D907D908D909D90BA
S1130A90AD90BD90CD90DD90ED90FD900D911D91A8
S1130AA0CD91DD91ED91FD910D90F894FEBF0FBEB7
S10F0AB0EDBFED91FD910994F894FFCF87
S1130ABC0100010051158020111E111B500B411B0C
S1130ACC411F1101511F510B0000010000000100D6
S1090ADC000032019F013D
S9030000FC
