S01700004763634170706C69636174696F6E312E737265635B
S11300000C942E000C944B000C944B000C9446055D
S11300100C944B000C944B000C944B000C947905FD
S11300200C944B000C944B000C944B000C944B0020
S11300300C944B000C944B000C944B000C944B0010
S11300400C944B000C944B000C944B000C944B0000
S11300500C944B000C944B000C944B0011241FBEC9
S1130060CFEFD4E0DEBFCDBF11E0A0E0B1E0E2EC21
S1130070FEE002C005900D92AC31B107D9F723E040
S1130080ACE1B1E001C01D92A534B207E1F70E94D2
S1130090A2040C945F070C940000CF93DF93CDB7B8
S11300A0DEB781E690E020E8FC01208381E690E061
S11300B0FC01108285EE90E027EBFC01208386EEA4
S11300C090E027E0FC01208387EE90E02FE0FC0124
S11300D0208384EE90E020ECFC0120830000DF917B
S11300E0CF910895CF93DF93CDB7DEB781E890E049
S11300F024E0FC01208381E690E021E630E0F90170
S113010020812160FC0120830000DF91CF910895BC
S1130110CF93DF9300D000D01F92CDB7DEB78B838F
S11301207D836C831A8219828C819D8199230CF4BE
S11301309BC28C819D8106970CF096C28B81803383
S113014018F08B818A3328F08AE090E09A838983BF
S113015006C08B81882F90E0C0979A8389838C8115
S11301609D81892B09F066C08CEE90E02CEE30E086
S1130170F9012081422F407F29813A81220F331FC8
S113018020503F4FF901208131812F70242BFC0135
S1130190208381EF90E021EF30E0F9012081422FAC
S11301A0407F29813A81220F331F20503F4FF901AC
S11301B020813181207F33273595279535952795E3
S11301C03595279535952795242BFC01208386EFBB
S11301D090E026EF30E0F9012081422F407F298111
S11301E03A81220F331F20503F4FF9012081318182
S11301F022273F70232F330F330B242BFC01208342
S11302008BEF90E02BEF30E0F9012081422F407F0B
S113021029813A81220F331F20503F4FF901208159
S1130220318120E13202212D330B1124242BFC01D6
S113023020831BC28C819D81019709F067C08CEEDD
S113024090E02CEE30E0F9012081422F4F7029819B
S11302503A81220F331F20503F4FF9012081318111
S113026022953295307F3227207F3227242BFC01C0
S1130270208381EF90E021EF30E0F9012081422FCB
S11302804F7029813A81220F331F20503F4FF901CB
S113029020813181207F242BFC01208386EF90E094
S11302A026EF30E0F9012081422F4F7029813A81F5
S11302B0220F331F20503F4FF90120813181222723
S11302C03F7035952795359527953595279535951F
S11302D02795242BFC0120838BEF90E02BEF30E05B
S11302E0F9012081422F4F7029813A81220F331F57
S11302F020503F4FF901208131812227307F232F65
S1130300330F330B242BFC012083AFC18C819D81DF
S1130310029709F066C08DEE90E02DEE30E0F90111
S11303202081422F407F29813A81220F331F2050A0
S11303303F4FF901208131812F70242BFC01208350
S113034082EF90E022EF30E0F9012081422F407FDC
S113035029813A81220F331F20503F4FF901208118
S11303603181207F33273595279535952795359508
S1130370279535952795242BFC01208387EF90E062
S113038027EF30E0F9012081422F407F29813A8113
S1130390220F331F20503F4FF90120813181222742
S11303A03F70232F330F330B242BFC0120838CEF5E
S11303B090E02CEF30E0F9012081422F407F298129
S11303C03A81220F331F20503F4FF90120813181A0
S11303D020E13202212D330B1124242BFC01208334
S11303E044C18C819D81039709F067C08DEE90E034
S11303F02DEE30E0F9012081422F4F7029813A819E
S1130400220F331F20503F4FF90120813181229563
S11304103295307F3227207F3227242BFC01208322
S113042082EF90E022EF30E0F9012081422F4F70FB
S113043029813A81220F331F20503F4FF901208137
S11304403181207F242BFC01208387EF90E027EF6C
S113045030E0F9012081422F4F7029813A81220F27
S1130460331F20503F4FF9012081318122273F70F3
S11304703595279535952795359527953595279560
S1130480242BFC0120838CEF90E02CEF30E0F90169
S11304902081422F4F7029813A81220F331F20502F
S11304A03F4FF901208131812227307F232F330FE1
S11304B0330B242BFC012083D8C08C819D810497AD
S11304C009F066C08EEE90E02EEE30E0F901208156
S11304D0422F407F29813A81220F331F20503F4F02
S11304E0F901208131812F70242BFC01208383EFBB
S11304F090E023EF30E0F9012081422F407F2981F1
S11305003A81220F331F20503F4FF901208131815E
S1130510207F33273595279535952795359527954C
S113052035952795242BFC01208388EF90E028EF54
S113053030E0F9012081422F407F29813A81220F46
S1130540331F20503F4FF9012081318122273F7012
S1130550232F330F330B242BFC0120838DEF90E0EA
S11305602DEF30E0F9012081422F407F29813A812B
S1130570220F331F20503F4FF9012081318120E1A8
S11305803202212D330B1124242BFC0120836DC056
S11305908C819D81059709F068C08EEE90E02EEE67
S11305A030E0F9012081422F4F7029813A81220FD6
S11305B0331F20503F4FF90120813181229532951C
S11305C0307F3227207F3227242BFC01208383EFC6
S11305D090E023EF30E0F9012081422F4F70298110
S11305E03A81220F331F20503F4FF901208131817E
S11305F0207F242BFC01208388EF90E028EF30E05B
S1130600F9012081422F4F7029813A81220F331F33
S113061020503F4FF9012081318122273F703595C9
S11306202795359527953595279535952795242B29
S1130630FC0120838DEF90E02DEF30E0F901208163
S1130640422F4F7029813A81220F331F20503F4F90
S1130650F901208131812227307F232F330F330B7F
S1130660242BFC01208301C000000F900F900F90F9
S11306700F900F90DF91CF910895CF93DF9300D027
S113068000D000D0CDB7DEB76B837C838D839E838F
S11306908B819C81AD81BE810197A105B10511F4C7
S11306A080E030C082E090E09A8389831BC0898116
S11306B09A819C01990F440B550B8B819C81AD81D0
S11306C0BE81BC01CD010E94DD06DC01CB01892B7A
S11306D08A2B8B2B11F480E015C089819A810196B5
S11306E09A83898389819A819C01990F440B550BC4
S11306F08B819C81AD81BE81281739074A075B072E
S1130700B4F281E026960FB6F894DEBF0FBECDBFDB
S1130710DF91CF910895CF93DF93CDB7DEB72A97BA
S11307200FB6F894DEBF0FBECDBF6D837E838F837B
S113073098875A87498789859A859A8389838D8181
S11307409E81AF81B88524E630E040E050E0BC01F2
S1130750CD010E94DD06DC01CB012AE030E040E05F
S113076050E0BC01CD010E94DD06DA01C90120E39D
S1130770280F89819A81BC01822F0E9488001C82E3
S11307801B8205C08B819C8101969C838B838B810A
S11307909C81883E9340B4F389819A8101969A831F
S11307A089838D819E81AF81B8852AE030E040E065
S11307B050E0BC01CD010E94DD06DC01CB0120E349
S11307C0280F89819A81BC01822F0E948800000031
S11307D02A960FB6F894DEBF0FBECDBFDF91CF913E
S11307E00895CF93DF9300D000D000D0CDB7DEB70B
S11307F09E838D8381E090E0A0E0B0E089839A83BA
S1130800AB83BC8389819A81AB81BC81BC01CD015E
S11308100E943D03882359F02D813E8189819A816C
S1130820AB81BC81A901BC01CD010E948B038981EC
S11308309A81AB81BC810196A11DB11D89839A83E4
S1130840AB83BC83DFCFCF93DF93CDB7DEB780918B
S11308502001909121010A9734F010922101109205
S1130860200181E001C080E0DF91CF910895CF9312
S1130870DF9300D0CDB7DEB79A8389830CC08FEEA7
S113088090E02FEE30E0F901308121E0332309F0CC
S113089020E0FC0120830E942304882381F7EECF0B
S11308A0CF93DF93CDB7DEB783E290E0FC01808184
S11308B0881F8827881F882F90E0909323018093B6
S11308C0220120911601309117018091220190910B
S11308D023012817390751F08091220190912301B7
S11308E0909317018093160181E001C080E0DF91AD
S11308F0CF910895CF93DF9300D000D0CDB7DEB76A
S11309009C838B8381E090E09A8389830E945004C6
S11309108823E1F389819A8101969A838983898165
S11309209A8199230CF4019695958795092E000CCC
S1130930AA0BBB0B2B813C81A901BC01CD010E94F8
S11309408B03E4CFCF93DF93CDB7DEB70E944D0086
S11309500E94720064E070E08AE794E00E94460618
S113096060E070E081EF93E00E94460681E090E051
S11309700E94370480E090E0DF91CF910895CF93F7
S1130980DF9300D0CDB7DEB71A82198220C08981E7
S11309909A819C012F5F3F4F4DE6429FC001439FC8
S11309A0900D11249C012F563E4F49815A816DE6CA
S11309B0649FC001659F900D11248B569E4FFC01CE
S11309C03183208389819A8101969A8389838981DD
S11309D09A810397E4F21092DD021092DC0285E220
S11309E090E025E230E0F90120812068FC012083B9
S11309F08DE390E02DE330E0F90120812068FC01D3
S1130A0020838CE690E02CE630E0F9012081206818
S1130A10FC01208381E690E021E630E0F9012081A9
S1130A202160FC01208381E890E021E830E0F901B5
S1130A3020812860FC01208381E890E021E830E0F7
S1130A40F90120812560FC0120838FE690E02FE6E8
S1130A5030E0F90120812260FC01208388E890E0E5
S1130A6027E831E0FC013183208384E890E0FC0135
S1130A701182108281E090E090931F0180931E0107
S1130A8000000F900F90DF91CF9108951F920F9265
S1130A9000905F000F9211242F933F934F935F9325
S1130AA06F937F938F939F93AF93BF93EF93FF9332
S1130AB0CF93DF93CDB7DEB783E290E0FC01808172
S1130AC0882314F00E94C5060000DF91CF91FF91A6
S1130AD0EF91BF91AF919F918F917F916F915F91B2
S1130AE04F913F912F910F9000925F000F901F90B4
S1130AF018951F920F9200905F000F9211242F936C
S1130B003F934F935F936F937F938F939F93AF9391
S1130B10BF93EF93FF93CF93DF93CDB7DEB780916D
S1130B20200190912101019690932101809320014D
S1130B300E94C5060000DF91CF91FF91EF91BF9114
S1130B40AF919F918F917F916F915F914F913F9161
S1130B502F910F9000925F000F901F901895CF93E4
S1130B60DF9300D000D000D0CDB7DEB79C838B8359
S1130B707E836D838B819C81FC01158214828D811F
S1130B809E81FC0180819181892B41F48D819E811C
S1130B902B813C81FC01318320831DC08D819E818A
S1130BA0FC01808191819A83898307C089819A811C
S1130BB0FC01848195819A83898389819A81FC01CE
S1130BC084819581892B91F789819A812B813C813C
S1130BD0FC0135832483000026960FB6F894DEBF0B
S1130BE00FBECDBFDF91CF910895CF93DF9300D097
S1130BF000D0CDB7DEB79C838B838B819C81FC01B5
S1130C00808191819A8389838B819C81FC0180817D
S1130C109181892B71F08B819C81FC018081918170
S1130C20FC01248135818B819C81FC0131832083EB
S1130C3001C0FFCF89819A810F900F900F900F9080
S1130C40DF91CF910895CF93DF9300D0CDB7DEB776
S1130C509A83898380911A0190911B0106960E94C0
S1130C601E07892B69F489819A8190931B018093D3
S1130C701A0189819A81069661E070E00E943E071C
S1130C8000000F900F90DF91CF910895CF93DF93E1
S1130C9000D000D000D0CDB7DEB79C838B837E8399
S1130CA06D83F89480911E0190911F01892B11F49A
S1130CB00E94BF0488E191E00E94F5059A8389832C
S1130CC089819A812B813C81FC0131832083898134
S1130CD09A812D813E81FC013383228389819A810B
S1130CE0FC011582148289819A8106960E941E074E
S1130CF0019701F5789480911A0190911B01FC01F0
S1130D002081318180911A0190911B01FC01828123
S1130D109381F9010995F89480911A0190911B012E
S1130D2068E171E00E94AF058CE191E00E94F50555
S1130D300E94230689819A810696409629813A81E8
S1130D40235E3F4F245B3F4FFC0131832083898125
S1130D509A810696429629813A81235E3F4F245B0D
S1130D603F4FFC013183208389819A816CE171E0DA
S1130D700E94AF057894000026960FB6F894DEBF63
S1130D800FBECDBFDF91CF910895CF93DF93CDB741
S1130D90DEB7F89480911A0190911B016CE171E027
S1130DA00E94AF058CE191E00E94F5050E942306A4
S1130DB078940000DF91CF910895052E97FB1EF4DF
S1130DC000940E94F40657FD07D00E94FC0607FC1D
S1130DD003D04EF40C94F40650954095309521952B
S1130DE03F4F4F4F5F4F0895909580957095619553
S1130DF07F4F8F4F9F4F0895A1E21A2EAA1BBB1B52
S1130E00FD010DC0AA1FBB1FEE1FFF1FA217B307D2
S1130E10E407F50720F0A21BB30BE40BF50B661FE8
S1130E20771F881F991F1A9469F7609570958095AC
S1130E3090959B01AC01BD01CF010895DC012D9279
S1130E403D924D925D926D927D928D929D92AD9266
S1130E50BD92CD92DD92ED92FD920D931D93CD93B3
S1130E60DD93FF91EF918DB78D938EB78D938FB7EF
S1130E708D93ED93FD93882799270994DC01CB0189
S1130E8081309105811D2D903D904D905D906D9028
S1130E907D908D909D90AD90BD90CD90DD90ED9026
S1130EA0FD900D911D91CD91DD91ED91FD910D90F0
S1130EB0F894FEBF0FBEEDBFED91FD910994F89437
S1050EC0FFCF5E
S1130EC251158020111E111B500B411B411F110192
S10F0ED2511F510B00000100910124018C
S9030000FC
